:020000040000FA
:020000001528C1
:080008009D20B800030EB700B3
:1000100081080B18B3068B18BE0A370E8300B80E82
:10002000380E06088B100B1009008316003085006F
:100030008130860000308700003088000030890061
:100040008312091089108B170B168B150117FA30C4
:10005000BC000030BE000130C0000330BF000030E3
:100060003E060319582001303E0603196520023070
:100070003E060319732003303E0603198120043025
:100080003E0203188F203E08850033184D20331C94
:100090004A202F28003089000800BC0B080051209E
:1000A0000800FA30BC003F08C0064008890008007C
:1000B0008712071292209220922092209220922062
:1000C00092209220922092200800871207169220F8
:1000D0009220922092209220071292209220922029
:1000E00092209220080087120716922092209220D8
:1000F0009220922092209220071292209220922009
:1001000008008712071692209220922092209220B7
:100110009220922092209220071292200800003014
:10012000BE002F200F30B5002830B600B603031DE7
:100130009628B503031D942808005030B500003000
:10014000B600B603031DA128B503031D94280800BB
:10015000BD013530B4009930B5000030B600B603AB
:10016000031DAF28B503031DAD28B403031DAB2841
:02017000080085
:02400E00323F3F
:00000001FF
